:020000040800F2
:10000000A0BF0120150300080D4900081D48000885
:1000100009490008FD160008ED670008000000000F
:10002000000000000000000000000000F949000886
:10003000691C000800000000F54900084D4A00084E
:100040002F0300082F0300082F0300082F030008C8
:100050002F0300082F0300082F0300082F030008B8
:100060002F0300082F0300082F0300082F030008A8
:100070002F0300082F0300082F0300082F03000898
:100080002F0300082F0300082F0300082F03000888
:100090002F0300082F0300082F0300082F03000878
:1000A0002F0300082F0300082F0300082F03000868
:1000B0002F0300082F0300082F0300082F03000858
:1000C0002F0300082F0300082F0300082F03000848
:1000D0002F0300082F0300082F0300082F03000838
:1000E0002F0300082F0300082F0300082F03000828
:1000F0002F0300082F0300082F0300082F03000818
:100100002F0300082F0300082F0300082F03000807
:10011000354C00082F0300082F030008654A00082B
:100120002F0300082F0300082F0300082F030008E7
:100130002F03000800000000000000002F0300084B
:100140002F0300082F0300082F030008114900089F
:100150002F0300082F0300082F0300082F030008B7
:100160002F0300082F0300082F0300082F030008A7
:100170002F0300082F03000800000000000000000B
:100180002F0300082F03000800F002F800F0B2F877
:100190000AA090E8000C82448344AAF10107DA45E2
:1001A00001D100F0A7F8AFF2090EBAE80F0013F082
:1001B000010F18BFFB1A43F00103184778890000AC
:1001C000988900000A444FF0000C10F8013B13F02E
:1001D000070408BF10F8014B1D1108BF10F8015BA0
:1001E000641E05D010F8016B641E01F8016BF9D193
:1001F00013F0080F1EBF10F8014BAD1C0C1B09D1EA
:100200006D1E58BF01F801CBFAD505E014F8016B5B
:1002100001F8016B6D1EF9D59142D6D370470000ED
:100220000023002400250026103A28BF78C1FBD8FF
:10023000520728BF30C148BF0B6070476E2900F0DD
:100240005E83702900F0B384662907F0CC876529A6
:1002500007F0C987672907F0C687612907F0C587B6
:1002600003681B0A28BF41F08001692900F00A8158
:10027000642900F00781752900F004816F2900F0DE
:100280004184782900F07F84E92900F0DB83E429A8
:1002900000F0D883F52900F0D583EF2900F03E84E3
:1002A000F82900F07E840368DB0928BF41F0800153
:1002B000632901F06380732901F06880E32901F06C
:1002C0007380F32901F07880002070471FB507F094
:1002D00078FF01F0CBF804000020002107F03AFB82
:1002E000401C60600020002107F01EFBE0601FBD85
:1002F00010B510BD01F08CF81146FFF7E7FF06F0CE
:10030000B1FB01F069F903B4FFF7F2FF03BC06F09B
:100310006FFA00000948804709480047FEE7FEE7FA
:10032000FEE7FEE7FEE7FEE7FEE7FEE7FEE7FEE7A5
:1003300004480549054A064B70470000514A000829
:1003400089010008A0B90120A0BF0120A0BB0120A5
:10035000A0BB0120704753EA020C00F069802DE930
:10036000F04B4FF00006002B1FBFB3FA83F503FAE2
:1003700005F424FA05F65E4012BF1643B2FA82F580
:1003800002FA05F4C5F120051EBF22FA05FC44EA75
:100390000C04203556EA044C4FEA144418BF641C80
:1003A0004FF000084FF00009904271EB030C39D375
:1003B000002919BFB1FA81F701FA07F6B0FA80F700
:1003C00000FA07F6C7F120071EBF20FA07FC46EA2D
:1003D0000C062037B6FBF4FCA7EB0507103F07F02F
:1003E0001F0BCBF120062CFA06F60CFA0BFB44BFD0
:1003F000B3460026202FA4BF5E464FF0000B5BEAF9
:10040000060C08BF4FF0010B19EB0B0948EB06086F
:10041000ABFB027C06FB02CC0BFB03CCC01B71EBDD
:100420000C01C1E70B46024641464846BDE8F08B49
:1004300013B5084318BF4FF0FF300146AFF30080FB
:10044000BDE81C40704700001CB50C46064B7B44C1
:1004500069460090204600F06CFA04460020694688
:1004600000F07AFA20461CBD070500000FB40449CD
:1004700010B503AA029800F075FA10BC5DF814FBE1
:10048000AC0700202DE9F0410646002410687529CC
:10049000314616A510D000F09EF9002802DA40423D
:1004A00013A507E031688A0701D512A502E04907C4
:1004B00004D511A5012401E000F096F900210A22DB
:1004C00006F1240709E0B0FBF2FCB0FBF2F302FBFB
:1004D0001C00303078541846491C0028F3D12346BC
:1004E0002A463046BDE8F04100F0B0B900000000F7
:1004F0002D0000002B000000200000002DE9F05F1F
:10050000894604464FF0000ADFF874B1FB44C0F896
:1005100020A02046E1688847002874D0252806D00E
:10052000D4E901219047206A401C2062F1E70026AF
:100530005F462046E16888472028054607DB312DC5
:1005400005D2781910F8200C08B10643F1E7B0077E
:1005500001D526F00406C4F81CA00027C4F818A092
:100560002A2D09D0284607F0D7F938B304EB8708BD
:10057000303DC8F8185019E059F8041B204604EB28
:1005800087029161E1688847012F054618D1E0692B
:10059000002820DA26F020061DE0D8F8180000EB2D
:1005A000800005EB40003038C8F818002046E168AC
:1005B0008847054607F0B0F90028EED1012F0AD090
:1005C0002E2D08D12046E16888477F1C0546022F62
:1005D00046F02006C4DBA069002803DA404246F05A
:1005E0000106A061F00701D026F010066C2D0BD09B
:1005F000682D09D04C2D39D06A2D35D0742D35D0C9
:100600007A2D33D016E038E0E1682F46204688473F
:10061000B842054609D16C2F26D04FF48060E168BE
:10062000064320468847054604E06C2F1AD04FF455
:10063000807006430DB3A5F14100192802D820357A
:1006400046F400664A462946204626604E46FFF795
:10065000F5FD80B101280BD0F61D26F0070000F152
:10066000080956E74020E4E78020D8E70020D6E7D5
:1006700006F104094DE7284652E7206ABDE8F09FDD
:10068000DE7C000010B5044603E006F077F9401C5C
:1006900009D014F8010B05490028F6D1BDE8104037
:1006A0000A2006F06BB94FF0FF3010BDAC070020F8
:1006B00010B5431C02E010F8011B71B18107FAD19B
:1006C0004FF0013202C88C1A8C4314EAC211F9D0DF
:1006D000C01A0A0603D0C01E10BDC01A10BD0A04FD
:1006E00001D0801E10BD0902FCD0401E10BD4FF08D
:1006F00000020429C0F0128010F0030C00F01B80EF
:10070000CCF1040CBCF1020F18BF00F8012BA8BFFC
:1007100020F8022BA1EB0C0100F00DB85FEAC17CC0
:1007200024BF00F8012B00F8012B48BF00F8012B73
:1007300070474FF0000200B51346944696462039A4
:1007400022BFA0E80C50A0E80C50B1F12001BFF48A
:10075000F7AF090728BFA0E80C5048BF0CC05DF8F0
:1007600004EB890028BF40F8042B08BF704748BF3E
:1007700020F8022B11F0804F18BF00F8012B7047B2
:10078000704770477047704770B5044685690068C8
:10079000C10601D5302600E02026C00707D070BD75
:1007A000D4E9012130469047206A401C20626D1E2A
:1007B000F6D570BD70B5044685690078C00707D1CD
:1007C00070BDD4E9012120209047206A401C20629E
:1007D0006D1EF6D570BD09684A0501D540B2704757
:1007E000C905FCD500B2704709684A0501D5C0B2F9
:1007F0007047C905FCD580B2704770B50C460546F8
:10080000012A05D02878800600D5EA69002302E095
:10081000012305E05B1C934202D2E05C0028F9D181
:10082000A869E618C01AA861286A184428622846F0
:10083000FFF7AAFF04E0D5E9012114F8010B904766
:10084000B442F8D32846FFF7B5FF70BD2DE9F04755
:100850000D4699469246044600F124080168880630
:1008600004D5E06921F01001216000E00120A842D8
:1008700001DD471B00E00027A1697A1902EB09009E
:10088000081AA0612078C00602D42046FFF77CFF3A
:10089000002608E0D4E901211AF806009047206AF2
:1008A000401C761C20624E45F4DB2078C0060AD539
:1008B0002046FFF769FF06E0D4E901213020904788
:1008C000206A401C2062381EA7F10107F4DC07E013
:1008D000D4E9012118F805009047206A401C2062E5
:1008E000281EA5F10105F3DC2046FFF763FF207801
:1008F000000602D50220BDE8F0870120FBE7116861
:100900000268006A530501D508700AE0D30501D5D5
:10091000088006E0130603D5C217C1E9000200E013
:10092000086001207047000001694A1C02610878D4
:10093000704700B58FB0CDE901310021059105491F
:100940007944CDE9031011466846FFF7D7FD0FB093
:1009500000BD0000E5FFFFFF0A6802F8010B0A6016
:1009600070470000074B70B50D467B44FFF7E1FF71
:100970000446284600F024FD10B14FF0FF3070BD52
:10098000204670BD0F6000002DE9FF5F15468A46C6
:100990000446DFF8AC80F8440027D8E900103E4652
:1009A000CDE9001010E03AF816106A4602A800F0EF
:1009B0000BFD411C07D02178890603D5E26939185F
:1009C00091420DD80744761C2078800602D5E06954
:1009D000B84205DDAE42E6DB3AF816000028E2D167
:1009E000A069C01BA0612046FFF7CEFED8E9001029
:1009F000CDE90010002017E03AF818106A4602A866
:100A000000F0E2FCB0F1FF3F81460BD000250DF174
:100A1000080B05E0D4E901211BF8050090476D1C87
:100A20004D45F7D308F10100B0428046E4DB206A6F
:100A3000384420622046FFF7BDFEBDE8FF9F00005E
:100A4000667800002DE9F0418046D21D22F00702B1
:100A50000025D2E90002F52915A614D0011E72F175
:100A6000000106DA0023D0EB030063EB020211A6BB
:100A700008E0D8F800108B0701D50FA602E049075F
:100A800001D50EA601251146002408F1240704E033
:100A900000F098F830323A55641C50EA0102F7D160
:100AA0002B46324621464046BDE8F041FFF7CEBE18
:100AB000000000002D0000002B00000020000000BE
:100AC00030B4002100F1240408E002F00705D20848
:100AD000303542EA4372DB086554491C52EA03058B
:100AE000F3D10468002310A2250708D504F02004E0
:100AF0000C4304D0C46901230CA2641EC46130BC41
:100B0000FFF7A4BE10B5044621461068FFF76CFE3F
:100B100002462046BDE810400023D1E7D21D22F056
:100B20000701D1E90023CBE70000000030000000FE
:100B3000F0B40D460188090502D5214C7C4402E041
:100B40001F4C7C440E34002100F1240608E002F022
:100B50000F071209E75D42EA03721B097754491C2B
:100B600052EA0307F3D102780023120704D5702D4F
:100B700006D009B1022311342246F0BCFFF766BE4D
:100B800001231034F8E770B504460D46214610687D
:100B9000FFF72AFE024629462046BDE870400023A2
:100BA000C6E7D21D22F00703D3E90023C0E703689C
:100BB000126843F0200303600823C3610023B7E7F2
:100BC000C876000030B5B0F10A0271F100034FEAB7
:100BD000900E4EEA817EB0EB0E0061EB91014FEA80
:100BE000101E4EEA017E10EB0E0041EB11114FEA90
:100BF000102E4EEA016E10EB0E0041EB11214FEA70
:100C0000104E4EEA014E10EB0E0041EB1141401820
:100C100041F100014FEAD00040EA41704FEAD101B2
:100C20004FEA810444EA907410EB800544EB010420
:100C30006D1944EB0404521BA3414FF0000348BF5D
:100C40000A3200D530BD401C41F1000130BD2DE914
:100C5000FF4F0C461E464FF0FF378BB0D2E9000124
:100C6000DDF860800A908A46C1F30A5505B93D4611
:100C7000002108464FF00000BAF1000F00F44000D8
:100C800005DA00EB80004FF4400101EA50004FEA22
:100C90009059B9F1010F00DDB9460A9850EA4A00AF
:100CA0000ED044F61050A5F2FF3545432F14B8F18D
:100CB000000F1ED07542291E1EDDC9F100021CE086
:100CC000B8F1010F4FF0000001D0302103E0F243F2
:100CD00005E02154401CB042FBDB304600220021DD
:100CE00021540B99C1F80880C1E900200FB0BDE87C
:100CF000F08FBD1B6D1CDEE74A4600DA694206A88C
:100D000000F0F8FB06AB93E8070003AB83E80700AD
:100D100050460A9906F01FFA8DE80700A0F500502A
:100D20001F3800900398002D0ADD42F21F014A4649
:100D30000844002303A90390684606F089FC09E0F3
:100D4000A0F500504A461F38002303A903906846C7
:100D500006F093FC8DE807000004000C03D04FF070
:100D6000FF30410800E01046B8F1000F03D0002228
:100D7000009215461EE0751E05D4FFF723FF3032A2
:100D800062556D1EF9D5B3460122084302D00022F8
:100D90007F1C04E02078302801D100227F1E002A29
:100DA000099784D01DE0112D07DAFFF70BFF3032D1
:100DB00062556D1C50EA0102F5D1084302D000983B
:100DC000C8B10EE00021681E05E0235C625C63543C
:100DD0002254401E491C8142F7DBAB46A81B401E33
:100DE0000990002004F80B000B98099AC0F80880BD
:100DF000C0E9002B7AE711264FF0000857E72DE9EC
:100E0000F04F88460446D21D22F0070191B0D1E987
:100E10000001CDE90A0106F067FD02460B98C00FFC
:100E200001D02D2007E02068810701D52B2002E0AA
:100E3000202101EAC000032A099001D0072A05DB1E
:100E400003464146204600F015FB0BE12078800662
:100E500001D5E06900E00620B8F1650F814606D0B3
:100E6000B8F1660F18D0B8F1670F70D131E00020EB
:100E7000B9F1110F009001DB112301E009F1010329
:100E80000AAA01A90CA8FFF7E2FEDDE90C70002612
:100E900009F10105834647E001204B4600904FF0E1
:100EA00000470AAA01A90CA8FFF7D1FEDDE90DB0A1
:100EB0000C995D46002610B909F101000D18B9EB37
:100EC000050003D4C0F1FF3609F10105A5EB0900C7
:100ED0002BE0B9F1010F01DA4FF001090020B9F15F
:100EE000110F0090484601DD112300E003460AAAD5
:100EF00001A90CA8FFF7ABFEDDE90C704D460026FA
:100F00008346207800070AD4AB4500DA5D4601A885
:100F1000012D04DD411911F8011C302907D04F457E
:100F200002DA17F1040F04DA012082460FE06D1E89
:100F3000EEE7002F02DCED1B3E4403E0781CA842E4
:100F400000DD7D1CB81B00F1010A4FF0004720783E
:100F5000000703D4AA4501DB4FF0FF3A0021B7F1A7
:100F6000004F0DF143088DF8431024D002202B23AD
:100F7000002F01DA7F422D230A21021EA0F1010079
:100F800000DC5FB197FBF1FC97FBF1F201FB1C7CED
:100F900017460CF1300C08F801CDEEE7A8F101007E
:100FA00003702188090501D5452100E06521A0F1E4
:100FB000010800F8011C09980FA9A1EB0807FF1D03
:100FC00000B10120411901EBEA70A1693844081A07
:100FD000401EA0612078C00602D42046FFF7D4FB53
:100FE000099828B1D4E901219047206A401C206269
:100FF0002078C00622D52046FFF7C6FB1EE0002E53
:1010000004DBB34502DD01A8805D00E03020D4E9B7
:1010100001219047206A401C2062761CAAF1010041
:101020005FEA000A0AD100F021FAC0680168405C5A
:10103000D4E901219047206A401C2062281EA5F1B6
:101040000105DCDC07E0D4E9012118F8010B904729
:10105000206A401C2062381EA7F10107F3DC2046FD
:10106000FFF7A8FB032011B041E600002DE9F04F87
:1010700004460D46D21D22F0070089B0D0E9009742
:101080004846394606F030FC0246F80F01D02D23C1
:1010900007E02068810701D52B2302E0202101EA27
:1010A000C0038DF820300BB1012000E00020032A9E
:1010B000824601D0072A04DB2946204600F0DAF9EF
:1010C0003FE12078800601D40D2500E0E569C7F3F3
:1010D0000A560D2D49DA00214FEA175B08464FF0FA
:1010E0000000002F00F4400007DA00EB80004FF40E
:1010F000400100EBD07001EA60008115012901DD9B
:101100004FF0FF3100224FEA850CBCF1180F06D3D7
:101110001346ACF118004FF08052C24003E04FF488
:10112000801323FA0CF30CF10C0CBCF1200F04D348
:10113000ACF1200C09FA0CF001E007FA0CF00029E0
:101140004FF0004801DD18B90FE00ED140450CD337
:1011500019EB02095F4121B9404502D19F4329EAB9
:101160000209BBEB175F00D0761C2088000502D572
:101170007B48784402E07A487844193808AA30233A
:1011800002F80A30037C0AF10101002E0AF1020A7A
:1011900053546A4602DC4FF0300101E04FF0310158
:1011A0004FF001088DF8001002D0A6F2FF3603E0E0
:1011B00059EA470100D06B4E002D02DC2178090767
:1011C00004D54FF002082E218DF80110C4460021ED
:1011D0000BE0C7F303433F01C35C491C6D1E02F8DB
:1011E0000830052908F1010801DA002DF1DC0021A1
:1011F0000CE000EB1973491C1B786D1E082902F8DE
:1012000008304FEA091908F1010801DA002DF0DC75
:1012100021688B0602D516E0A8F10108E04505DD3E
:1012200002EB080313F8013C302BF5D0B8F1000FA6
:1012300009DD02EB080313F8013C2E2B03D109074B
:1012400001D4A8F10108002D05DD3E2102F80810A7
:101250006D1E08F10108407C002E02F8080008F11C
:10126000010804DA2D20764202F8080002E02B2063
:1012700002F808000A214FF47A70864208F101084A
:101280000BDB96FBF0F3303302F8083096FBF0F3FB
:1012900008F1010800FB136601E0642E0CDB6420FA
:1012A00096FBF0F3303302F8083096FBF0F308F1C8
:1012B000010800FB136601E00A2E06DB96FBF1F045
:1012C000303002F8080008F1010896FBF1F001FB4C
:1012D0001060303002F80800A16908F1010808EB3D
:1012E000050202EB0A00081AA0612078C00602D4A9
:1012F0002046FFF749FA216A08AE01EB0A00206296
:1013000004E0D4E9012116F8010B9047BAF1010A73
:10131000F7D22078C00602D52046FFF735FA6E4690
:1013200009E016F8010B3E280FD0D4E901219047BF
:10133000206A401C2062B8F10108F2D22046FFF773
:1013400039FA09B00320BDE8F08F206A28442062F2
:1013500003E0D4E90121302090476D1EEBD3F8E77C
:10136000CD70000002FCFFFF10B5436913B1AFF36D
:10137000008001E0FFF741FA012010BD127800F172
:1013800024010A7000224A700122EDE711684FF033
:10139000FF32E9E710B5436913B1AFF3008001E014
:1013A000FFF7F2FA012010BD128800F124018284B7
:1013B0000022C2840122EDE711684FF0FF32E9E715
:1013C000007B00F0800070472DE9F04116460C4686
:1013D000054600F043F8036893F80101012807D09F
:1013E000FF2C12D8185D80B101202C70BDE8F0816F
:1013F000D3F807013246214603F20713C7182846DF
:10140000BC46BDE8F041002360474FF0FF30EDE7F8
:10141000754600F0EBF8AE4605006946534620F0ED
:101420000700854618B020B5FEF782FFBDE82040D2
:101430004FF000064FF000074FF000084FF0000B90
:10144000AC46ACE8C009ACE8C009ACE8C009ACE8FF
:10145000C00921F007018D467047000010B500F06B
:1014600005F8001D10BD00BFED6400000048704786
:10147000E00100202DE9F0411F46044603260168E3
:10148000072A01F4006004DB08B116A505E016A5E3
:1014900003E008B115A500E015A521F010002060BB
:1014A000A069C01EA0610FB1401EA0612046FFF7D9
:1014B0006BF94FB1D4E9012138469047206A401CAE
:1014C0002062C01C206206E0206AFAE7D4E901210C
:1014D00015F8010B9047761EF8D22046FFF76AF9FF
:1014E000BDE8F0814E414E006E616E00494E4600EF
:1014F000696E66002DE9F047814616468AB0354888
:1015000078440DC88DE80D0032487844801C03AC47
:101510000DC884E80D0041F69B300844372190FB4C
:10152000F1F290FBF1F5A5F1800501FB12041B3CE3
:1015300002D56442012000E00020DFF898A0804638
:101540000027FA44AAF1BE0A0EE0E0070AD03246AC
:10155000684607EB470101230AEB810106F08DF88D
:101560008DE8070064107F1C002CEED1194F7F44DA
:10157000AE3F19E0E80715D007EB04100DF1180A8B
:1015800090E80E008AE80E00C068F04201D1981978
:1015900008903246012306A903A806F06EF803ABB3
:1015A00083E807006D10641C002DE3D14FF00103A8
:1015B00032466946B8F1000F03A802D006F048F899
:1015C00001E006F05AF8C9E90001C9F808200AB09C
:1015D000BDE8F087D06D000010B50446AFF3008081
:1015E0002046BDE81040FEF78EBE00000048704760
:1015F000C00100200000000030B44FF0013C50F862
:10160000042B51F8043BCCFA52F4D51A20D1FCB982
:1016100050F8042B51F8043BCCFA52F4D51A17D1E8
:10162000B4B950F8042B51F8043BCCFA52F4D51A53
:101630000ED16CB950F8042B51F8043BCCFA52F49B
:10164000D51A05D1002CDAD030BC4FF0000070471D
:1016500029BAB1FA81F111F01801D1F120008440CA
:10166000F2D1CA40CB4012F0FF0213F0FF0330BCAE
:10167000D01A70470146806B036C026C13F0500F58
:1016800007D0D20648BF00F0ADBB806BC26C0846E5
:10169000104742F40071016401688A6812F0405FEB
:1016A00001D000F09BBB027E002AFAD1CA6A12F474
:1016B000700F02D08A685205F3D44A6822F02002E3
:1016C0004A60016C21F480710164016CC90448BF57
:1016D00000F084BB016C41F00101016400F07EBBAD
:1016E000806B40210164416C41F00401416400F0D1
:1016F00079BB0000806B00F073BB0000FEE70000C8
:1017000010B521281FD0202830D1086840F20404E9
:10171000C2F20004206048790A7960718879114624
:10172000A07113A02271FEF7A1FE617916A0FEF749
:101730009DFEA1791BA0FEF799FE216820A0FEF76F
:1017400095FE002010BD40F20400C2F200000268C5
:101750000A700268120A4A7042888A70C278CA7097
:1017600002790A7142794A7180798871002010BD2E
:101770006C696E65636F64696E672E666F726D610A
:10178000743A25640D0A00006C696E65636F6469C4
:101790006E672E706172697479747970653A256428
:1017A0000D0A00006C696E65636F64696E672E6474
:1017B000617461747970653A25640D0A0000000057
:1017C0006C696E65636F64696E672E6269747261BD
:1017D00074653A25640D0A000020704780B540F218
:1017E000AC3040F63651C2F20000C2F2000103F004
:1017F00007FC002080BD0000F0B581B0044640F237
:10180000AC30C2F200000D4603F0DCFB286880B368
:1018100040F68E7140F6C66C48F2000E0022C2F20D
:101820000001C2F2000CCFF6FF7E00250BE000BFE6
:101830000A2A4FF0000208BF43EA0E020A8001356F
:10184000EAB2904215D90E8833B2002BF7D4A25CCD
:101850007704EDD40D2A02D143F48042EEE76FF312
:101860009F360CF806205A1C93B2C72B88BF002263
:10187000E4E7002001B0F0BD2DE9F0472DED028B2B
:1018800040F61000C2F2000090ED000A40F2C420C1
:10189000C2F2000090ED001A40F29C7040F2A07479
:1018A00030EE418AC2F20000C2F2000480ED008AEC
:1018B000206806F0EBFB9FED480B5AEC105B2A46C4
:1018C000534606F02AFC4CF28F280028C4F2DD08AB
:1018D00008BFC4F80080206806F0D8FB9FED400BDD
:1018E00056EC107B3A46334606F010FC00284CF2CA
:1018F0008F2941F23C00CCF2DD0908BFC4F800900A
:10190000C2F2000090ED000A40F28810C2F200001E
:1019100094ED001A90ED002A21EE000A28EE022A2A
:1019200040F2987032EE000AC2F2000080ED000A28
:1019300040F2B010C2F2000038EE010A90ED001A39
:1019400040F2B820C2F2000090ED002A84ED000AB7
:1019500040F28C7040F2907431EE428AC2F2000084
:10196000C2F2000480ED008A206806F08FFB2A4650
:10197000534606F0D2FB002808BFC4F80080206858
:1019800006F084FB3A46334606F0C0FB002840F2DE
:10199000947008BFC4F80090C2F2000090ED000AF5
:1019A00040F26810C2F2000094ED001A90ED002A97
:1019B00021EE000A28EE022A40F2887032EE000A78
:1019C000C2F2000080ED000A38EE010A84ED000A40
:1019D000BDEC028BBDE8F087B81E85EB51B81B400B
:1019E000B81E85EB51B81BC02DE9F0472DED068BD5
:1019F00040F2B42840F2AC2940F2A87AC2F20008C2
:101A0000C2F20009C2F2000AB8F80000B9F80010EA
:101A1000BAF800204AF6AB2C40F220260023CAF682
:101A2000AA2CC2F20006002509E000BFF75A3A448A
:101A3000AAF800200233782B05F1010513D0A5FB8D
:101A40000C477F0807EB4707EC1B012C06D0002C46
:101A5000ECD1F75A3944A9F80010EBE7F75A3844AB
:101A6000A8F80000E6E7B9F80000B3EE049A00EE2B
:101A7000100AB8EE400A80EE090A9FED778A20EE40
:101A8000080A10EE100A06F001FB9FED6F0B54ECF4
:101A9000105B2A46234606F00DF99FED6D0B56ECC0
:101AA000107B3A46334605F09DFF05F069FFB8F814
:101AB00000100AEE100A00EE101AB8EE400A80EE8E
:101AC000090A40F2A821C2F20001086020EE080ACB
:101AD00010EE100A06F0DAFA2A46234606F0EAF873
:101AE0003A46334605F07EFF05F04AFFBAF800108B
:101AF00001EE100A00EE101AB8EE400A80EE090A54
:101B000040F2B021C2F2000108603AEE011A40F240
:101B1000A4209FED523AB1EE412AC2F2000080EDBE
:101B2000002A40F2A47040F29C21C2F20000C2F2EE
:101B3000000120EE080A20EE030AB2EE063A20EE7B
:101B4000030A80ED000A81ED002A9FED450A9FED12
:101B5000452A2AEE000A21EE022A40F2A02130EEA8
:101B6000020AC2F2000181ED000A40F608014BF6BC
:101B70004412C2F20001C2F2010292ED002A91ED7C
:101B8000003A40F2BC2120EE024A21EE035A20EE38
:101B9000030A21EE021AC2F2000131EE001A91EDA1
:101BA000000A34EE454AB6EE002A40F2C82220EE82
:101BB000020A24EE023AC2F2000233EE000A92ED6B
:101BC000003A40F2C42723EE023A21EE021AC2F292
:101BD000000731EE031A40F2B82387ED001A41F2F4
:101BE0003807C2F20003C2F2000783ED000A40F298
:101BF000CC233E78C2F2000393ED002A0136F5B201
:101C0000002032EE012A0A2DA9F80000A8F80000F1
:101C1000AAF8000083ED002A3E700BD1B2EE043A20
:101C200082EE032A40F2C026C2F200063870186025
:101C300086ED002A81ED000A82ED001ABDEC068BCC
:101C4000BDE8F08700BF00BF6666666666660A404C
:101C5000000000606666FABF0000803933335340ED
:101C600036CD933F7DD013BF70470000B0B540F232
:101C70001434C2F20004002040F2FF710025C4F2C7
:101C80000100C4E9025140F2F021C4E90005C2F2AA
:101C90000001032006220123C1E900052046C4E912
:101CA0000455A5610A62C1E90235C1E90425C1E90B
:101CB000063501F063FF20463C2101F0F5FF40F2BC
:101CC0005C31C2F200010D6020464D60BDE8B040BD
:101CD00001F050BEB0B581B00022009290F83C20D7
:101CE000012A01D1022176E0D1F800E001221FFA99
:101CF0008EFC80F83C204FEA4C0212FA8EF3026808
:101D0000BEF10A0F32BF10321E3B0C320724156899
:101D10009C4025EA040414608C68156804FA03F3F7
:101D20002B4313604A68062A07D802EB82014A1F38
:101D300001681F2351F8344F0CE001680C2A02EBB4
:101D4000820203D851F8304F233A02E051F82C4F69
:101D5000413A1F23934024EA03030B600D680CFAF9
:101D600002F22A4342F204330A60C4F2010301681A
:101D7000A3F54172914208BFBEF1120F02D0914209
:101D800006D025E01D6845F480051D6091421FD1F5
:101D90002EF0010110291BD11968BEF1100F41F47A
:101DA0000001196014D140F20C01C2F2000109686F
:101DB0004DF68362C4F21B32A1FB0212910C01EBBF
:101DC000810149000091009911B100990139F9E7A9
:101DD000002180F83C10084601B0B0BD70470000FB
:101DE0007047000070470000002804BF01207047C2
:101DF00010B50446006C30B9204600F09BF8002076
:101E0000606484F83C00206CC0063AD4206C41F237
:101E100002118843023042F204312064C4F201010D
:101E2000086820F4403008600A6894E809101A43F2
:101E3000D4F810E00A604168012321F48071416008
:101E40004168C0F6007341EA0E214160416821F00B
:101E500040714160416841EA0C014160816821F4B0
:101E600000618160E168826811438160A16A8268D3
:101E7000994222F070628260826804D122F040515F
:101E80000AE0012052E011438160816821F0405155
:101E90008160E16A826811438160816821F00201FA
:101EA00081608168227E94F8203041EA420181609D
:101EB000416883B141F40061416041684EF2000223
:101EC00021F460414160616ACFF6FF72436802EB22
:101ED0004131194301E021F400614160C16A40F2DF
:101EE000000C21F47001C162E2696169CFF6F07CF7
:101EF000C36A0CEB02521A43C262826822F4007277
:101F0000826094F83020836843EA422282608268CB
:101F100022F480628260826842EA8121816000202E
:101F20006064216C012262F301012164002184F8C4
:101F30003C1010BDF0B587B0044642F200070068BF
:101F4000C4F201070026B8420696CDE9046603965E
:101F5000029601D007B0F0BD43F630000196C4F2FE
:101F60000200416902AD41F480714161416901F4AF
:101F70008071019101990196016841F001010160B0
:101F8000016801F00101019101990196016841F098
:101F9000020101600068294600F0020001900198EA
:101FA000062002900320CDE9030607F5604000F00B
:101FB00051FA0120029007F56440294600F04AFAE0
:101FC00040F6D87546F21040C2F20005C4F2020095
:101FD0004FF48061C5E9000605F110004FF400627E
:101FE0004FF400534FF480778EC02846C5E902664F
:101FF000C5E9086600F01EF9122000210022A56341
:10200000AC6300F077FB122000F064FB07B0F0BD7A
:1020100070B582B004460020019094F83C0001287D
:1020200002D1022002B070BD13460A460120216889
:1020300084F83C008868C00718D188684DF683652D
:1020400040F00100886040F20C00C2F2000000681D
:10205000C4F21B35A0FB0505A80C00EB400000BF37
:102060000190019810B101980138F9E78868C0051E
:1020700003D5886820F4807088608D68206CED0737
:1020800009D140F01000206404F1440001210268ED
:102090001143016070E040F20175A84300F58070C3
:1020A00020644868400504D5206C012565F30D3097
:1020B0002064256C0020ED044FF0000544BF656CE2
:1020C00025F00605656484F83C00A06B41F2756557
:1020D00041F2F56CC0F60005C0F6000CC0E90F5CDB
:1020E00041F2E165C0F60005C5646FF022050D60A0
:1020F0004D6842F2043645F080654D608D68C4F24B
:10210000010645F480758D604C3100F033F931687B
:102110002068C9060FD0A6F5417188422CD14FF630
:102120000451CFF6FF71715811F0405F24D108308F
:102130004FF08041ABE742F20001C4F20101884256
:1021400015D042F20021C4F2010188420CD042F2C3
:102150000011C4F2010188420ED13168C90606D0CF
:10216000A6F58271884207D13168C90604D450F8B7
:10217000081F11F0405F02D0002002B070BD4FF088
:10218000804184E770B5866D044600F04DFA94F8FE
:102190003510022928D105462068216C026822F0FA
:1021A00016020260426922F08002426109B9A16C04
:1021B00019B1016821F008010160016821F00101F5
:1021C000016000BF20680068C00714D000F02CFA3E
:1021D000401B0628F6D320206065002084F83400D8
:1021E000032084F8350070BD80206065002084F8ED
:1021F0003400012070BDE06D3F2101FA00F0B060B5
:102200000020012184F8340084F8351070BD0000EE
:1022100090F83510022909D1052180F835100068A1
:10222000016821F0010101600020704780214165B3
:10223000012070472DE9F041044600F0F5F9C4B1E2
:102240000546002084F83400022084F83500206818
:10225000016821F00101016020680168C9070BD005
:1022600000F0E2F9401B0528F6D9032120220320C3
:102270007AE00120BDE8F081016848F23F02CFF228
:102280001002D4E9013501EA020ED4E9032143EA40
:102290000E032B43D4E9056C1A43D4E907781143A4
:1022A000314341EA0702616A42EA0802042942EA2C
:1022B0000C0303D1D4E90B273A431343036042696B
:1022C000042922F0070241EA02012DD1D4E90A5380
:1022D00041EA050143B3BCF5005F08D0BCF1000F33
:1022E00012D1022D16D0012D07D09DB119E0032D7A
:1022F00017D8DFE805F00B0F0B02A3F1C072B2FA9A
:1023000082F252094AB90FE0032D02D2012222B90A
:102310000AE006D1C3F3006232B10121402201205C
:1023200022E00022002AF8D100F0F8024AF6AB239E
:10233000103ACAF6AA23A2FB033748F204334161DC
:102340003909C0F60003595C40F2FF3398435F2A15
:102350004FF03F0288BF0430C4E9160102FA01F1D0
:102360008160002201210020626584F83510BDE8FB
:10237000F081000070B590F834C0BCF1010F45D079
:102380004FF0010C80F834C0D0F858E090F835C018
:10239000BCF1010F37D14FF0020C80F835C04FF07F
:1023A000000CC0F854C0D0F800C08468056CC06D43
:1023B000DCF80060402C26F48026CCF80060CCF8D5
:1023C00004300B4604BF13460A463F2101FA00F0D1
:1023D000CCF80830CCF80C20CEF80800DCF800006F
:1023E00040F01600CCF800002DB1DCF8000040F001
:1023F0000800CCF80000DCF8000040F00100CCF848
:102400000000002070BD002180F83410022070BD53
:1024100080B54EF2180140F61802CEF20001C2F269
:10242000000251F804CC126880B250434FF47A7223
:1024300000FB02FE086800230A689042FCD00344B7
:102440009B1A904298BF63447345104628BF80BDD5
:10245000F2E700002DE9F04F82B000F13E4241F674
:10246000004502F1FF77C4F2020508224FEAB726C1
:10247000A84208BF0722072E38BF4FEAB7224FF005
:10248000010E002400274FF00009009209E000BF70
:1024900009F101090237B9F1100F04F1040400F049
:1024A000A3800A680EFA09FC12EA0C08F0D0D1F8F1
:1024B00004B00BF0030AAAF10102012A14D88268C1
:1024C0000323CE6803FA07FE22EA0E02BE4032431F
:1024D00082604268CBF3001622EA0C0206FA09F683
:1024E0004FF0010E32434260BAF1030F1DD0C268B3
:1024F00003238D6803FA07F6B24305FA07F6324361
:10250000BAF1020FC26010D16FF0030202EA590261
:102510000244D2F820C004F01C050F230E69AB4022
:102520002CEA0303AE4033431362026803234E6870
:10253000BB409A4306F00303BB401A43F30002601A
:10254000A6D5002243F644030192C4F202031A689E
:1025500043F6004C42F480421A601A68C4F2010C3F
:1025600002F480420192019A29F003024FF6084AD0
:102570006244CFF6FF7A52F80A3004F00C060F25B9
:10258000B540AB43009D05FA06F6334342F80A30E6
:10259000DCF800204B6842EA0806DD0358BF22EA57
:1025A0000806CCF80060DCF804209D0342EA080627
:1025B00058BF22EA0806CCF80460DCF80820DD02E7
:1025C00042EA080643F60C4558BF22EA0806CCF852
:1025D0000860C4F201052A689B0242EA080658BF57
:1025E00022EA08062E6053E702B0BDE8F08F000033
:1025F0000069084018BF012070470000426902EAE4
:102600000103914341EA034181617047002A08BFF9
:10261000090481617047000042F20000CEF204001C
:102620000068000C704700004BF69C10C2F20100DD
:102630000068704740F2B4104BF69C11C2F20000E3
:10264000C2F2010100780A68104408607047000077
:1026500080B543F60040C4F20200016841F4007105
:102660000160016841F480610160052000F06EF8AE
:102670000F2000F005F800F02BF8002080BD0000CE
:10268000B0B540F2B412C2F2000240F20C0112786E
:10269000C2F200014FF47A730968B3FBF2F2044608
:1026A000B1FBF2F1084601F04BF90F2C4FF0010598
:1026B0000CD858B94FF0FF3021460022002500F019
:1026C00019F840F2B810C2F2000004602846B0BD0C
:1026D00070470000002848BF704700F01F0101222A
:1026E00002FA01F14EF200124009CEF2000242F865
:1026F0002010704710B54EF60C5CCEF2000CDCF8E2
:102700000030C3F3022E8EF00704042C28BF0424EB
:10271000BEF103034FF0FF3E0EFA04F438BF00236E
:10272000A14399400EFA03F39A43114300F160422A
:1027300000F00F03090102F56442043B63440028E2
:1027400048BF03F10C02117010BD00004EF60C5191
:10275000CEF200010A684FF6FF031A4060F30A2226
:1027600042F0806040F0FD700860704770470000E4
:102770000268002051627047B0B5D0F800E0DEF882
:102780002400D1B1DEF82830B1F1010C00EB134385
:102790000BD05FFA8CF10EF58070002450F8045FC6
:1027A00001348C4203EB1543F8D343EA02400EEBAD
:1027B0008C01C1F804010020B0BD40EA0240CEF80F
:1027C00028000020B0BD000040F61401C2F2000154
:1027D00001220A70D0F8040402F00CBEC1EBC10261
:1027E000D0F8043400EB8200826C184602F078BD09
:1027F000C1EBC102D0F8043400EB8200D0F808220B
:10280000184602F0C1BD000010B5044640F61400A1
:10281000C2F200000021017004A0FDF733FFD4F8DC
:102820000404BDE8104002F0E7BD00BF555342204C
:1028300044657669636520446973636F6E6E656392
:102840007465642E0D00000010B5044648B2B0F166
:10285000FF3F01F00F00C0EBC00104EB810205DD7A
:1028600002F5FE71002382F8FD3104E0012302F13C
:102870003C0182F83D3094F8BC230870012A04BF63
:10288000022010BD2068012284F8BC2303F068FBFD
:10289000002084F8BC0310BDB0B54268044601F0C6
:1028A0000F0082423CBF0120B0BD49B2B1F1FF3FF1
:1028B00009DDC0EBC00104EB810202F5FE710023CB
:1028C00082F8FD3108E0C0EBC00104EB8102012376
:1028D00002F13C0182F83D3094F8BC230025012A26
:1028E0008D70087004BF0220B0BD2068012284F8FA
:1028F000BC2303F013FD284684F8BC53B0BD000090
:1029000001F00F01C1EBC10100EB8100D0F814020E
:102910007047000070B5064648B2B0F1FF3F01F0C5
:102920000F00C0EBC00107DD06EB810404F5FE716A
:10293000002584F8FD5106E006EB810C01240CF122
:102940003C018CF83D404D780870002D8A60CB70BA
:1029500018BFC880022B04BF0020087196F8BC0382
:10296000012804BF022070BD3068012286F8BC2314
:1029700003F03AFA002086F8BC0370BD10B501F0F0
:102980000F0CCCEBCC0100EB81044FF0000EC4F82F
:1029900014E284F8FDE1D0F810E0C4F80822C4F88D
:1029A0001032BEF1010F84F8FCC108BFC4F80C223C
:1029B000006804F5FE715FFA8EF2BCF1000F03D0DF
:1029C00003F0F2FC002010BD03F0FCFB002010BD62
:1029D000B0B50446406801F00F05854284BF012070
:1029E000B0BD48B2B0F1FF3F09DDC1EBC10004EB5F
:1029F000800000F5FE71002280F8FD2108E0C5EBA3
:102A0000C50004EB8000012200F13C0180F83D206C
:102A100094F8BC03012201288A700D7004BF0220C3
:102A2000B0BD206884F8BC2303F0A0FC2DB9206859
:102A3000217C04F5717203F043FC002084F8BC0390
:102A4000B0BD0000B0B501F00F0CCCEBCC0100EB39
:102A50008105294601F83CCF0024D0F810E08C61B4
:102A600001244C70CA60BEF1010F4B6108BFEA64DB
:102A700000685FFA8EF2BCF1000F03D003F094FC03
:102A80000020B0BD03F09EFB0020B0BD2DE9F04F4B
:102A900089B004680746204603F08EFD10B109B0E6
:102AA000BDE8F08F386803F0B5FD0028F7D038682E
:102AB00003F0B0FD800704D53868416901F00201D8
:102AC0004161386803F0A6FDC006089704943DD51F
:102AD0003868816921F010018161256AC5F343409E
:102AE000062805F00F041AD0022829D147F6F07005
:102AF00015EA000624D00899C4EBC40001EB800756
:102B0000D7F80812350904982A4603F087FDD7F84C
:102B1000080200EB1610C7F80802089F07E00498A7
:102B200007F57171082203F079FDC5F30A15C4EBAE
:102B3000C40007EB8000D0F814122944C0F8141226
:102B40003868816941F010018161049C386803F0A4
:102B500061FD000340F1DB80386803F039FD002897
:102B600000F0D580064607F571704FF430654FF0E0
:102B700000084FF0000A07901CE000BF5FEAC96040
:102B800042BF6019102181605FEA896042BF60190D
:102B9000202181605FEA894042BF60194FF40051F3
:102BA00081600AF1010A760805F1200508F11C0888
:102BB00000F0AD80F007F4D038685FFA8AFB594620
:102BC00003F020FD8146C0076AD0601901218160B1
:102BD000386805EB000C036CDCF808203F69012F16
:102BE0002BD1170739D4970600F18580089F12F082
:102BF000280F55D143F20B01C4F654718B4202D316
:102C000012F4004233D1DCF8102007EB0801D1E9BF
:102C100081376FF3DF429A1AC1F81422FA18BAF119
:102C2000000FC1F8082206D1D1F8101219B9079A7D
:102C3000012103F045FB089F2DE043F20B07C4F68A
:102C40005477FF37BB421BD1100456D4089F90061F
:102C500044BF2020CCF808001DE043F20B00C4F66E
:102C60005470089F83421BD312F4004018D04FF4D5
:102C70000040CCF808005FEA09707FF57FAF13E0F1
:102C8000089FBAF1000F06D1D7F8101219B9079AA8
:102C9000002103F015FB38465946FFF7A9FD00BF98
:102CA0005FEA09707FF56AAF6019082181603868B2
:102CB00043F20B02D0F840B02844C4F65472816845
:102CC000541EA34505D911F400411CBF4FF4004127
:102CD0008160089F384600F035FBA345049C7FF6D1
:102CE0004DAF386901287FF449AF3868079A012150
:102CF00003F0E6FA42E7202001E04FF40040CCF870
:102D00000800089F5FEA09707FF538AFCCE73868A4
:102D100003F080FC400340F1C480386803F050FCAD
:102D2000002800F0BE8081460498002400F510665B
:102D300007F571704FF0010A0290039606E000BF9C
:102D40005FEA590904F1010400F0AB805FEAC97041
:102D5000F6D03868E1B2079103F042FC0546C0079F
:102D600026D0049A04F00F00D2F834180AFA00F0C2
:102D700021EA0000C2F8340806EB4410C0F808A0AD
:102D80003869012810D1C4EBC40007EB8000D0E9FA
:102D90001112114481643CB9006D28B93868029A57
:102DA000012103F08DFA00BF07993846FFF716FDA1
:102DB000280742BF06EB441008218160E80642BFA5
:102DC00006EB441010218160680642BF06EB4410F8
:102DD00040218160A80742BF06EB441002218160B8
:102DE0002806ADD5C4EBC40007EB800083465BF832
:102DF000501FD84658F8042F9142A1D382463F680D
:102E00005AF8443F891A994238BF0B46069707EB98
:102E10004411D1F81829033392B2B2EB930F29D39E
:102E200001F5106100F14807059100BFD8F80000D6
:102E3000DBF8001081421DD9DAF80050089A081A10
:102E4000A8423968167C38BF0546DDE90602ABB2F8
:102E5000009603F0ADFC3868D8F8001028443860BC
:102E60004819C8F800000598E91C806980B2B0EBE9
:102E7000910FDBD2DBF80000D8F80010089F039E0A
:102E800088424FF0010A3FF65BAF069A04F00F004C
:102E9000D2F834180AFA00F021EA0000C2F8340827
:102EA0004EE7386803F0B6FB049CB0F1FF3F19DC35
:102EB000D4F8040820F00100C4F8040897F8F403DB
:102EC000012807D1002087F8F40338460021FFF7D6
:102ED0004DFC02E0384600F009FA3868416901F01B
:102EE00000414161386803F095FB00050BD5D4F82B
:102EF0000808C00702D0384600F04CFA386841692B
:102F000001F400614161386803F084FBC00457D5C7
:102F1000D4F80408102120F00100C4F8040838682F
:102F2000254604F5006403F027FB7868F8B105F541
:102F300010614FF67F3200BF8A600B68013823F4BE
:102F400000130B600B6843F000630B60C1F80822AC
:102F5000D1F8003223F40013C1F80032D1F8003266
:102F600043F00063C1F8003201F12001E4D1E069CF
:102F700040F00110E061386B40B1D4F8840040F0BB
:102F80000B00C4F8840004F1440006E0606942F2DA
:102F90002B010843606104F11000016807F57172AC
:102FA00041F00B010160206820F4FE602060386869
:102FB000397C03F085F93868416901F48051416139
:102FC000386803F027FB800416D5386802F04CFF00
:102FD000386803F0E3FA3D68F86000F0ABFA3A7B3A
:102FE0000146284603F058FB384600F03BF93868A4
:102FF000416901F400514161386803F00BFB00079F
:1030000007D5384600F086F93868416901F00801B3
:103010004161386803F0FEFAC00208D53846002145
:1030200000F034F83868416901F480114161386872
:1030300003F0F0FA800208D53846002100F02AF8A3
:103040003868416901F400114161386803F0E2FA1F
:10305000400007D53846FFF7B7FB3868416901F0F3
:1030600080414161386803F0D5FA40077FF517AD1C
:1030700038684468600702D53846FFF7C5FB3868F2
:1030800041682143416009B0BDE8F08FD0F80404E5
:1030900002F0FEB9D0F8040402F00ABA2DE9F04FAC
:1030A0008BB098B30446056890F8BD0328B900209A
:1030B00084F8BC03204600F091F8032084F8BD0397
:1030C000E86BC0055CBF00202061206803F072F847
:1030D000206804F11C0A0A90D4E90C5004F1040E93
:1030E0009AE8C0079EE80E58CDE9085003A880E88A
:1030F000C0030A988DE80058CDF81CA002F0C4FE69
:1031000030B1022084F8BD03012562E0012560E0B2
:1031100020680021002503F095FA616861B3012061
:1031200000230022C3EBC30304EB830787F83C2092
:10313000D3B20132A7F84230D3B2994287F83D00AA
:1031400087F83F50C7E911553D65EBD800200023B3
:10315000002200BFC3EBC30304EB830787F8FC2105
:103160000132D3B2994287F8FD0187F8FF01C7E920
:103170008100C7F81002EDD8A06822680A90D4E94F
:103180000C5004F1140E04F1240AD4E903379EE82C
:1031900040589AE80007CDE9085002A880E8005896
:1031A00010460A9ACDE90076CDE90589CDF81CA034
:1031B00002F038FF20B1022084F8BD03012508E0A9
:1031C0000025012084F8385084F8BD03206802F0FF
:1031D00019FF28460BB0BDE8F08F000080B586B01F
:1031E00000680021B0F1A04F0591CDE903110291D3
:1031F000019101D006B080BD43F63000C4F2020058
:10320000426842F0800242600091426942F480428A
:103210004261426902F480420092009A0091026881
:1032200042F001020260006800F001000090009886
:103230004FF4C05001900220CDE902010320049018
:103240000A2005900020C4F2020001A9FFF702F94C
:10325000432000210322FFF74DFA4320FFF73AFAFB
:1032600006B080BDB0B50446C06828B1012502286B
:1032700014BF17A00FA001E0002507A0FDF702FA78
:10328000D4F8040402F036F9D4F804042946BDE861
:10329000B04002F07BB900BF5553422044657669C7
:1032A0006365204C69627261727920205B48535DCE
:1032B0000D00000055534220446576696365204C3B
:1032C00069627261727920205B46535D0D000000D7
:1032D00055534220446576696365204C696272618A
:1032E000727920205B46533F5D0D000010B5044607
:1032F00004A0FDF7C7F9D4F80404BDE8104002F0BB
:103300002BB900BF44657669636520526573756D9E
:1033100065640D00D0F8040402F028B910B5044625
:1033200090F8BC03012804BF022010BD012084F8DE
:10333000BC0384F83810206803F09CF9002084F85E
:10334000BC0310BDD0F8042400F57171104602F0E2
:103350002FB9000010B5044690F8BC03012804BF43
:10336000022010BDA16A20680122012984F8BC2333
:1033700006D1A169012903D0816B41F480318163B9
:1033800003F0F2F8206802F02DFE002084F8BC0360
:1033900010BD000010B5044640F61400C2F2000053
:1033A0000021017004A0FDF76DF9D4F80404BDE814
:1033B000104002F03DB900BF44657669636520495D
:1033C0006E2073757370656E64206D6F64652E0D6D
:1033D000000000002DE9F041002800F08B8043F64A
:1033E0000808C4F202080446D8F8F8030D4600F0B5
:1033F0000700884207D288F8F853D8F8F80300F09D
:103400000700A84276D12068810717D5410705D566
:10341000D8F8001041F4E051C8F80010010705D5B4
:10342000D8F8001041F46041C8F80010D8F8001036
:10343000A26821F0F0011143C8F80010C0073FD185
:10344000D8F8F80300F00700A84207D988F8F85325
:10345000D8F8F80300F00700A8424BD120684107D4
:1034600007D5D8F80010E26821F4E0511143C8F8FC
:103470000010000708D5D8F80000216920F460404A
:1034800040EAC100C8F8000000F082F8D8F8001047
:1034900048F2EC22C1F30311C0F60002515C40F285
:1034A0000C0220FA01F140F2B810C2F200000068EC
:1034B000C2F200021160FFF7E3F80020BDE8F081DE
:1034C0006068811E022907D258F8081C89015CBF78
:1034D0000120BDE8F08110E0012807D158F8081C50
:1034E00089035CBF0120BDE8F08106E058F8081CA4
:1034F000890702D40120BDE8F081D8F8001021F03E
:1035000003010843C8F80000FFF78EF8064641F2B1
:10351000883700BFD8F80000616800F00C00B0EBFD
:10352000810F8DD0FFF780F8801BB842F2D90320BD
:10353000BDE8F08140F20C00C2F200000068704764
:1035400040F20C0043F60801C2F20000C4F202018E
:103550000068096848F2FC22C1F38221C0F600022B
:10356000515CC8407047000040F20C0043F608016F
:10357000C2F20000C4F202010068096848F2FC22AD
:10358000C1F34231C0F60002515CC84070470000F0
:1035900010B543F60404C4F20204606800F00C01A4
:1035A00042F200400829C0F2F40007D0042918BFF5
:1035B00010BD41F20020C0F27A0010BD216801F078
:1035C0003F02216823684902C3F3881105D4A1FB97
:1035D00000010023FCF7BFFE06E041F20020C0F22C
:1035E0007A004843B0FBF2F021680222C1F30141A6
:1035F00002EB4101B0FBF1F010BD00002DE9F041FC
:1036000082B0002800F0A1800446007843F600064E
:10361000C007C4F2020643D0B06800F00C000428D2
:1036200005D1306880033BD56068C8BB8DE0B068C9
:1036300000F00C00082802D170684002F1D46568DF
:10364000B5F5A02F0AD0B5F5803F0BD0306820F437
:1036500080303060306820F4802006E0306840F42C
:1036600080203060306840F480303060FEF7DCFF4E
:10367000002D054611D000BF3068800310D4FEF73E
:10368000D3FF401B6428F7D920E100BFFEF7CCFF31
:10369000401B64284FF0030054D830688003F5D4F1
:1036A000207880071AD5B06810F00C0F09D0B068E8
:1036B00000F00C00082840F088807068400200F19B
:1036C00084803068800702D5E06801283DD13068E9
:1036D000216920F0F80040EAC1003060207800073E
:1036E00037D4207840074AD4A56955B3B06800F0B4
:1036F0000C00082840F09C80012D26D07068E169FC
:1037000000F480028A4220D1216A00F03F028A42FE
:103710001BD147F6C071626A0140B1EB821F14D120
:10372000A16A4FF6FF73C903994300F44032A1F533
:1037300080318A4209D1E16A00F07060B0EB016F1C
:1037400003D1002002B0BDE8F081012002B0BDE845
:10375000F0816069002840F20000C4F2472056D092
:103760000121C0F8801EFEF75FFF0546706F8007DD
:10377000B7D4FEF759FF401B0228F7D9A6E0306CFA
:1037800010F080580AD100200190306C40F0805039
:103790003064306C00F080500190019847F20007CF
:1037A000C4F200073868C00524D4386840F480703B
:1037B0003860FEF739FF05463868C0051AD4FEF7B1
:1037C00033FF401B0228F7D980E0E068002851D081
:1037D0000020C4F2472001210160FEF725FF0546C5
:1037E000306880073FF573AFFEF71EFF401B0228CD
:1037F000F6D96BE0A568052D50D0012D52D0306F61
:1038000020F001003067306F20F004004DE000210F
:10381000C0F8801EFEF708FF054600BF706F8007E6
:103820007FF55FAFFEF700FF401B0228F6D94DE0A1
:103830000027C4F2472700203866FEF7F5FE022D68
:1038400005460BD13068800158D5FEF7EDFE401BD0
:1038500002284FF00300F5D974E700BF30688001FB
:103860007FF56FAFFEF7E0FE401B02284FF003002C
:10387000F4D967E70020C4F2472000210160FEF779
:10388000D3FE0546306880077FF528AFFEF7CCFEF3
:10389000401B02284FF00300F4D953E7306F40F08B
:1038A00004003067306F40F001003067FEF7BCFE67
:1038B000002D054641F2883714D000BF306F8007D5
:1038C00013D4FEF7B1FE401BB842F7D9032002B073
:1038D000BDE8F081FEF7A8FE401BB8424FF00300A0
:1038E0003FF630AF306F8007F4D4B8F1000F7FF4AB
:1038F000FBAE306C20F080503064F5E604F11C051E
:103900002FCD084340EA8210D9034FF6FF7291434E
:10391000A1F5803140EA05600843706001203866F7
:10392000FEF782FE044600BF306880013FF509AF14
:10393000FEF77AFE001B02284FF00300F4D901E7DE
:10394000411E0020B0EB116F1CBF012070474EF2EA
:103950001002CEF2000251604EF62351CEF2000169
:10396000F0230B70072190601160704770470000D2
:103970007047000010B590F83C20012A4FF0020279
:1039800052D0012380F83C3080F83D200268D2F804
:1039900004E0D2F808C00C682EF07003234341F213
:1039A000FF74C4F20004A24253600DDC40F2FF73C6
:1039B000C4F200039A4215DCB2F1804F29D040F2E4
:1039C0000043C4F2000322E040F2FF33C4F20103DB
:1039D0009A4212DC41F60003C4F200039A4218D066
:1039E000002312E040F60003C4F200039A4210D014
:1039F00040F60043C4F2000309E044F20003C4F2BD
:103A000001039A4205D040F20043C4F201039A42F6
:103A100004D149682CF080031943916001210022F0
:103A200080F83D1080F83C20104610BD002804BFEF
:103A30000120704710B5044690F83D0028B90020D9
:103A400084F83C00204600F01FF8022084F83D0076
:103A50002068211D01F00CF8012084F8460084F84C
:103A60003E0084F83F0084F8400084F8410084F868
:103A7000420084F8430084F8440084F8450084F848
:103A80003D00002010BD000080B582B0006841F20A
:103A90000041C4F2000188421CBF02B080BD00207A
:103AA000019043F64000C4F202000168002241F098
:103AB000200101600068002100F0200001900198C1
:103AC0003720FEF717FE372002B0BDE88040FEF732
:103AD00001BE000090F83D1001291CBF0120704775
:103AE000022180F83D10006841F2FF72C168C4F203
:103AF0000002904241F00101C1600DDC40F2FF7113
:103B0000C4F20001884215DCB0F1804F29D040F2A8
:103B10000041C4F2000122E040F2FF31C4F2010191
:103B2000884212DC41F60001C4F20001884218D03C
:103B3000002112E040F60001C4F20001884210D0DA
:103B400040F60041C4F2000109E044F20001C4F271
:103B50000101884205D040F20041C4F201018842CF
:103B600006D1816801F00701062904BF00207047D3
:103B7000016841F00101016000207047002804BF86
:103B8000012070472DE9F047044690F83D000D46AE
:103B900028B9002084F83C00204600F049F80220B3
:103BA00084F83D00206844F20702816891438160F7
:103BB000211D00F05DFF20684FF6FF788168826963
:103BC000D0F820C0D5E9003ED5E9026A43EA0109F0
:103BD000AB6922EA080246EA03234FF6FC46B343E8
:103BE000D5E9076742EA0A0229691A4342EA06222E
:103BF00042EA01112CF0AA026B6942EA0E0241EA84
:103C0000073142EA0312C0F8089081610262012084
:103C100084F8460084F83E0084F83F0084F84200AF
:103C200084F8430084F83D000020BDE8F0870000E0
:103C3000B0B586B00024C4F202040068A4F5803157
:103C4000884201D006B0B0BD002043F6300101909B
:103C5000C4F202014A6901AD42F001024A614A69B7
:103C600002F001020192019A0190086840F00100FF
:103C700008600868294600F00100019001984FF49F
:103C8000807001900220CDE902000490012005908F
:103C90002046FEF7DFFB4FF40070019020462946D6
:103CA000FEF7D8FB06B0B0BD80B590F83E2090F886
:103CB0003F3090F842E090F843C0042909D099B908
:103CC000012A4FF0010208BFBEF1010F2BD01046B0
:103CD00080BD012B4FF0010208BFBCF1010FF6D1EE
:103CE000022280F83F2012E0012A4FF0010208BFB3
:103CF000012BECD1BEF1010FE9D1BCF1010FE6D1EE
:103D0000022280F83E2080F83F2080F8422080F890
:103D1000432004290ED081B901684FF0010C2031F5
:103D20006FF0010317E0022280F83E2080F8422065
:103D30000429F0D10168203109E0016851F8202FF1
:103D400022F001020A600A6842F001020A604FF0A4
:103D5000100C6FF010030A681A400A600A6842EA01
:103D60000C020A6000680022016841F00101016054
:103D7000104680BD7047000010B504460068016918
:103D8000890744BFC1685FEA81713FD42068016937
:103D9000490744BFC1685FEA417143D420680169A3
:103DA000090744BFC1685FEA017148D4206801690E
:103DB000C90644BFC1685FEAC1614CD4206801698B
:103DC000C9071CBFC1685FEAC17151D12068016990
:103DD000090644BFC1685FEA016150D420680169E7
:103DE000490644BFC1685FEA41614FD42168086950
:103DF000800646BFC8685FEA806010BD6FF0200291
:103E000020460A61BDE81040FFF7B2BD6FF0020125
:103E1000016101212177806980073ED02046FFF7AC
:103E2000A9FF40E06FF00401016102212177806960
:103E300010F4407F3AD02046FFF79CFF3CE06FF043
:103E40000801016104212177C069800737D020462D
:103E5000FFF790FF39E06FF0100101610821217731
:103E6000C06910F4407F33D02046FFF783FF35E070
:103E70006FF001010161204600F04EFAA6E76FF0F5
:103E8000800101612046FFF771FDA7E76FF0400157
:103E90000161204600F09AFAA8E7204600F022F8D7
:103EA000204600F09FF9002020776FE7204600F0C1
:103EB00019F8204600F096F9002020776EE720469A
:103EC00000F010F8204600F08DF9002020776DE713
:103ED000204600F007F8204600F084F90020207703
:103EE0006CE70000704700002DE9F04390F83C308B
:103EF000012B04BF0220BDE8F0834FEAB202012388
:103F0000032A80F83C3000F2F480DFE802F0023E41
:103F10007DBD036840F200471A6A43F4806522F0D1
:103F200001021A621C6A1A46D3F804E052F818CF4C
:103F30008E6824F00204C4F20107BD4244EA06047C
:103F400005D1CE6824F00C0426F0040634430E6834
:103F5000BD4207D1D1E905572EF4407E45EA0E0552
:103F600045EA070E2CF073073743C3F804E09F615E
:103F70004F6809695F631C629F6947F008079F618A
:103F80009F6927F004079F61B0E0036840F2004892
:103F90001A6A43F4806522F010021A621C6A1A46FB
:103FA000D3F804C052F818EF8F6824F02004C4F24C
:103FB0000108454544EA071407D1CF686FF0400671
:103FC00024F0C00406EA07163443D1F800904545B2
:103FD00006D1D1E905562CF440672E4347EA860CFA
:103FE0002EF4E64747EA0927C3F804C09F614F68EB
:103FF00009699F631C629F6947F400679F619F691D
:1040000027F480679F6170E0036840F200481A6AF5
:1040100043F4806522F480721A621C6A1A46D3F84F
:1040200004C052F81CEF8F6824F40074C4F2010835
:10403000454544EA072408D1CF6840F2FF463F02D5
:1040400024F4406427EA06063443D1F8009045453D
:1040500006D1D1E905562CF440572E4347EA061CF9
:104060002EF0730747EA0907C3F804C0DF614F6801
:104070000969DF631C62DF6947F00807DF61DF69F8
:1040800027F00407DF6131E0036840F200451A6A57
:1040900043F4806722F480521A621A46D3F820C093
:1040A0005C6852F81CEFD1F800808E68C4F20105FC
:1040B000AF4204D14D6924F4804444EA85142CF4C1
:1040C000005747EA06372EF4E64646EA08265C60C3
:1040D000DE614E6809691E641F62DF6947F400678C
:1040E000DF61DF6927F48067DF6109021368194324
:1040F0001160002180F83C100846BDE8F083000004
:10410000002804BF0120704710B5044690F83D0018
:1041100028B9002084F83C00204600F01FF8022057
:1041200084F83D002068211D00F0A2FC012084F8E5
:10413000460084F83E0084F83F0084F8400084F88C
:10414000410084F8420084F8430084F8440084F875
:10415000450084F83D00002010BD0000B0B586B0D9
:1041600040F60004C4F202040068A4F582318842DB
:1041700001D006B0B0BD002043F630010190C4F27A
:1041800002014A6901AD42F002024A614A6902F045
:1041900002020192019A0190086840F00400086050
:1041A0000868012100F0040001900198402001906E
:1041B00002200290CDE903100320059020462946F5
:1041C000FEF748F98020019020462946FEF742F983
:1041D0004FF48070019020462946FEF73BF906B067
:1041E000B0BD00007047000041B1082909D0042982
:1041F00014BF00F1410200F13F0204E000F13E0271
:1042000001E000F140021278012A1CBF0120704732
:10421000022241B1082909D0042914BF80F84120A5
:1042200080F83F2004E080F83E2001E080F8402044
:10423000006801F01F010122036A02FA01F123EA7A
:1042400001020262026A0A4341F2FF71C4F20001F4
:10425000884202620FDC40F2FF71C4F20001884222
:1042600017DCB0F1804F49D040F20041C4F20001A8
:10427000884243D049E040F2FF32C4F2010290424A
:1042800014DC41F60003C4F20003984236D0002348
:1042900014E040F60001C4F2000188422ED040F63E
:1042A0000041C4F20001884228D02EE044F200030D
:1042B000C4F20103984221D040F20043C4F201034A
:1042C000984222D1436C884243F400434364C2DDE8
:1042D000904207DC41F60001C4F2000188420DD093
:1042E000002107E044F20001C4F20101884205D038
:1042F00040F20041C4F20101884206D1816801F018
:104300000701062904BF00207047016841F0010140
:10431000016000207047000080B5006841F2004154
:10432000C4F20001884218BF80BD40F60000C4F20C
:1043300002002021FEF762F941F23900C2F20000CA
:104340000078002840F60000C2F2000016D02421B8
:10435000C4F2010191ED000A9FED181AB8EE400A6F
:1043600020EE010A9FED161A30EE000A20EE010A37
:10437000B1EE0C1A20EE010A80ED000A90ED000A61
:104380009FED101A40F29820B4EE410AC2F20000EC
:104390009FED0D2AF1EE10FAD8BFB0EE420A80ED83
:1043A000000A00F0D3FA02F01BFD00F027FBFDF736
:1043B0001BFBBDE88040FDF75FBA00BF0000003A7C
:1043C000DB0F4940DB0FC9C0000000007047000050
:1043D0007047000070470000B0B582B00268054623
:1043E0001068D368546900F02F01202903F02001E0
:1043F00006D129B1284602B0BDE8B04000F026BC85
:104400005FEA007C1EBF04F0010E03F4907414EB0D
:104410000E0453D1296B012905D110F0100118BFEA
:1044200013F0100136D1010622D513F080011FD000
:1044300095F83D0021283FD1A868B0F5805F03D1F1
:104440002869002800F0F780286A411C296200785A
:104450005060E88C01380104E8842DD1D06820F048
:104460008000D060D06840F04000D06002B0B0BDA5
:10447000400621D513F040001ED0D068202120F046
:104480004000D060284685F83D1002B0BDE8B0403D
:1044900000F0C2B9002001901068019050680190AE
:1044A00001985069400611D4A88DE98DEB8D002B41
:1044B00018BF884240F0A68002B0B0BDC20718BF46
:1044C00013F480722DD1420731D437E0A86B016814
:1044D00049688BB2002BEFD0AC8DA342ECD2E985BA
:1044E000C169B1F5807F16D0D16821F48071D160A7
:1044F000516921F001015161516921F0400151617F
:10450000202185F83E1000212963D16821F0100197
:10451000D160FDF737FEA88DE98D401A81B228469B
:1045200084E02A6C42F001022A64420706D5BEF1FB
:10453000000F03D02A6C42F002022A64820706D5DB
:10454000BEF1000F03D02A6C42F004022A64BCF1D1
:10455000000F09D541EA0E02B2FA82F2520903D1E4
:104560002A6C42F008022A642A6C002AA4D010F0B7
:10457000200018BF002902D0284600F067FB2868F9
:1045800041692A6C01F0400102F0080289182CD020
:10459000C16821F49071C160416921F0010141615C
:1045A000296B012903D1C16821F01001C1602021CC
:1045B00085F83E1000212963416949061CD54169EF
:1045C00021F040014161A86BB0B144F64141C0F611
:1045D00000010165FDF71CFE00283FF46DAFA86BDC
:1045E000016D02B0BDE8B04008472846FFF7F2FE73
:1045F0000020286402B0B0BD284602B0BDE8B0403B
:10460000FFF7E8BED368401A23F49073D360536970
:1046100081B223F001035361202385F83E3000234B
:104620002B63D368284623F01003D36002B0BDE8A3
:10463000B040FFF7CDBE286A30F8021B6FF35F2150
:104640005160286205E70000002804BF0120704780
:1046500010B5044690F83D0028B9002084F83C00CD
:10466000204600F021F8242084F83D002068C1682D
:1046700021F40051C160204600F038FB2068016938
:1046800021F490410161416921F02A014161C16831
:1046900041F40051C16000202021206484F83D10C5
:1046A00084F83E1010BD0000F0B585B00024C4F2BF
:1046B00002040068A4F5DA31884201D005B0F0BDEB
:1046C000002043F630010090C4F202010A6902267C
:1046D00042F400220A610A696D4602F40022009247
:1046E000009A00900A68082742F001020A600A68EE
:1046F00002F001020092009A0090086840F0010068
:1047000008600868294600F0010000900098012028
:104710000090CDE90160204603960497FDF79AFECC
:104720002046294600960497FDF794FE3420FDF7B5
:10473000D1FF342003210322FDF7DCFF05B0F0BDDB
:10474000034690F83E0020280AD100294FF00100CE
:1047500018BF002A00D1704793F83C00012801D10E
:104760000220704700201863996222219A85DA8519
:10477000186483F83E10196883F83C00CA6842F454
:104780008072CA604A6942F001024A61CA6842F016
:104790002002CA6070470000006844F60041C4F27D
:1047A0000001884218BF704740F6345CC2F2000C2A
:1047B000BCF8002011B2002923D440F62443C2F2F1
:1047C00000031B78500404D40D2B0CD141F480421B
:1047D00015E048F200000022CFF6FF700A2B08BF58
:1047E00041EA00020BE040F66C406FF39F32C2F2E8
:1047F000000083544A1C90B2C72888BF0022ACF83E
:10480000002040F6284040F62441C2F20000C2F2E7
:1048100000010122FFF794BF70470000FEE700008F
:1048200080B586B000200590CDE90300CDE90100F8
:10483000009043F63000C4F20200016841F002012A
:104840000160006801A900F0020000900098E020DB
:1048500001900220CDE9030040F20040C4F20200C2
:10486000FDF7F8FD06B080BDF0B585B040F6907458
:1048700042F20000C2F20004C4F20100012200254D
:104880004FF480310127C0F60072032684E823002C
:104890002046CDE90355CDE90155277684F820500F
:1048A000C4E90A25E66184F83070C4E903576761FA
:1048B000FDF79AFA039501AD20462946CDE9017727
:1048C000FDF708FA0220CDE9010020462946FDF750
:1048D00001FA0820CDE9010620462946FDF7FAF93C
:1048E00005B0F0BD81B00020009043F63000C4F266
:1048F0000200016841F480010160006800F480005A
:104900000090009801B07047FEE70000704700007B
:1049100040F61C00C2F20000FEF7B8B84BF6541186
:10492000C2F2010109684863704700004BF6541158
:10493000C2F2010109688863704700004BF6541108
:10494000C2F201010968C86370470000B0B540F2C7
:104950009824C2F2000494ED000A01F04BFF40F6E7
:10496000080594ED001AC2F2000585ED000AB0EECC
:10497000410A01F08BFF40F2A470C2F2000090EDFA
:10498000001A9FED1B2A4BF6441082EE011AC2F268
:10499000010080ED000A40F2D020C2F2000095ED47
:1049A000003A80ED001A40F28870C2F2000090EDEB
:1049B000001A40F29870C2F2000090ED002A21EE39
:1049C000035A20EE024A40F2807035EE444AC2F2A9
:1049D000000080ED004A20EE010A22EE031A40F2A8
:1049E000847031EE000AC2F2000080ED000AB0BD12
:1049F00000518746704700007047000080B54BF6B5
:104A00004810C2F2010090ED000ABDEEC00A10EE9F
:104A1000100AFFF783FF4BF64C10C2F2010090ED35
:104A2000000ABDEEC00A10EE100AFFF77FFF4BF63A
:104A30005010C2F2010090ED000ABDEEC00A10EE67
:104A4000100ABDE88040FFF779BF0000FDF7F2BD16
:104A50004EF68850CEF20000016841F4700101600A
:104A60007047000040F26430C2F20000FFF784B9E2
:104A700010B540F6FF3E0368C4F2000E40F2004C51
:104A80007045C4F2010C0FDCB0F1804F19D040F238
:104A90000042C4F20002904213D040F60002C4F279
:104AA000000290420DD010E040F60042C4F2000235
:104AB000904206D0604504D00022C4F20102904228
:104AC00003D14A6823F07003134341F6FF72C4F226
:104AD000000290420DDC70451FDCB0F1804F41D0E8
:104AE00040F20042C4F2000290423BD040F6000285
:104AF00021E043F6FF72C4F20102904220DC42F250
:104B00000002C4F2000290422CD00022C4F2010242
:104B1000904227D0604525D028E040F60042C4F2FC
:104B2000000290421ED041F60002C4F20002904200
:104B300018D041F60042C4F20002904212D015E0B3
:104B400044F20002C4F2010290420BD044F600028B
:104B5000C4F20102904205D044F20042C4F20102C4
:104B6000904203D1CA6823F44073134323F08002B8
:104B70004B69D1F800E08C681A430260C46240F4CB
:104B80008062C0F828E0624504BF09690163012121
:104B9000416110BD10B540F26434C2F2000441F22C
:104BA00000410022C4F200010123C4E90220204692
:104BB000C4E90013FEF73AFF2046BDE81040FEF7B7
:104BC00089BF0000B0B54BF65414C2F2010440F2A4
:104BD00000422023C4F20102C4E902302046C4E9A5
:104BE0000021FFF78DFA40F2D425C2F200057020B3
:104BF0000021C5E90001A960204629460022FFF7EF
:104C000073F9204629460422FFF76EF9204629460B
:104C10000822FFF769F920460021FFF7E5FA204650
:104C20000421FFF7E1FA20460821BDE8B040FFF774
:104C3000DBBA000040F62840C2F20000FFF7CCBB10
:104C4000806B0021C185C184FFF7C4BB10B5044649
:104C500090F83E00222847D1A168B1F5805F01D1CC
:104C6000206990B1A06AB1F5805F07D009B92169C8
:104C700021B12168496801F07F0101E0216849689C
:104C80000170A06A0130A06207E02068A16A406854
:104C90006FF35F2021F8020BA162E08D013801045F
:104CA000E08518BF10BD2068C16821F02001C160F7
:104CB000C16821F48071C160416921F00101416145
:104CC000202184F83E10216B012908D1C16821F010
:104CD0001001C160A18D2046FFF77AFB02E020465B
:104CE000FFF75AFD0020206310BD000010B50446F8
:104CF0000068D4E902C22369016921F440511143DB
:104D00000161626943EA0C01E3691143C268194316
:104D100049F20C639A431143C1604169A26921F4CD
:104D2000407141F20043114340F48062C4F2010338
:104D30009A42416102D1FEF717FC01E0FEF700FC48
:104D4000E16963681922B1F5004FA0FB020121D18E
:104D50005A00DB0FFBF7FFFA48F21F51C5F2EB11C7
:104D6000A0FB01235A094FF69C73C0F6FF7303F1B1
:104D7000805302FB0300322303EBC000A0FB0101C0
:104D80004FF4F87000EA111000EB0210C1F3421169
:104D900008441DE09A009B0FFBF7DDFA48F21F5113
:104DA000C5F2EB11A0FB01235A094FF69C73C0F624
:104DB000FF7302FB0300322303EB0010A0FB010191
:104DC000F02000EA511000EB0210C1F34311084437
:104DD0002168886010BD000010B5D0F8BC323BB32C
:104DE0008E4601EB810100EB810151F8184F64B14F
:104DF000D0F8C4C2CEEBCE020CEB8202D2F844C093
:104E0000B4FBFCF202FB1C42A2B10024C3F8144222
:104E1000D0F8C002D0F810C0BCF1000F06D0D3F813
:104E2000080203F504717246E0470024204610BDD5
:104E3000032010BD00240C6071460022002300F006
:104E400001FC204610BD0000B0B5D0F8BC527DB1C9
:104E5000044600F0DDFAD4F8C02205F50371D368EA
:104E6000D5F80422C5F80C02104698470020B0BDC2
:104E70000320B0BDB0B58121044600F029FA002519
:104E800020460121258700F023FA20468221A4F83C
:104E9000785100F01DFAD4F8BC02E56450B1D4F8A2
:104EA000C00240688047D4F8BC12002001F002FF25
:104EB000C4F8BC520020B0BD10B5D0F8BC4284B1DB
:104EC000D0F8C01279B194F80002FF280BD08B689B
:104ED00094F8012221469847FF2084F80002002020
:104EE00010BD032010BD002010BD0000014640F29F
:104EF000D0000A22C2F200000A807047014640F248
:104F000048004322C2F200000A807047014640F286
:104F10008C004322C2F200000A807047014640F232
:104F2000DC004322C2F200000A8070472DE9F04104
:104F3000044600204FF407714FF0000801F0F2FE24
:104F4000D8B30546C4F8BC02207C4026002808BF20
:104F50004FF40076204681210222334600F0B8FA51
:104F600001272046012102223346278700F0B0FAAC
:104F70001020A4F84E002046822103220823A4F822
:104F8000787100F0A5FAD4F8C002A4F84C7000685B
:104F90008047C5F81482C5F81882207CD5F8042211
:104FA000002820464FF001010CBF4FF4007340234E
:104FB00000F098FA0020BDE8F0810220C4F8BC821D
:104FC000BDE8F08180B5D0F8BC1271B190F810C086
:104FD000D1F8042240230121BCF1000F08BF4FF497
:104FE000007300F07FFA002080BD032080BD000028
:104FF00000290EBF0320C0F8C01200207047000037
:10500000D0F8BC0200280EBF0320C0F80412002014
:1050100070470000D0F8BC0200280FBF0320C0F882
:105020000812C0F8102200207047000070B582B04E
:10503000D0F8BC62044600208DF80700ADF80400EB
:10504000C6B108780D4610F0600115D020292AD18C
:10505000EA88002A2DD040B2B0F1FF3F32DD6878F7
:10506000314686F80002204686F8012200F0A6F8B4
:10507000002660E003265EE068780B2844D800260E
:10508000DFE800F006594242424242424242303C8E
:1050900094F89C0203283DD101A92046022200F089
:1050A000A7F8002647E02046294600F07BF80326B3
:1050B00041E0D4F8C00229468368687800220026BF
:1050C000984738E0D4F8C00231468368687898473A
:1050D000EA8820463146072A28BF072200F088F8D0
:1050E000002628E094F89C02032819D10DF107014D
:1050F0002046012200F07CF800261CE094F89C0277
:10510000032813D1002616E02046294600F04AF86D
:10511000032610E02046294600F044F803260AE062
:105120002046294600F03EF8032604E020462946A2
:1051300000F038F80326304602B070BD80B5D0F8D4
:10514000BC223AB1D2F8141200294FF0010103D069
:10515000084680BD032080BDC2F81412D2F8103278
:10516000D2F808228121C36200F06CFA00210846BF
:1051700080BD000080B5D0F8B8220AB152689047CF
:10518000002080BD80B513460A46002100F0AAF930
:10519000002080BD80B513460A46002100F052FA77
:1051A000002080BD10B58021044600F031FA204671
:1051B0000021BDE8104000F02BBA000080B5134676
:1051C0000A460321C0F894120021C0E9563300F0CA
:1051D00089F9002080BD000080B50521C0F8941237
:1051E00000210022002300F07DF9002080BD000096
:1051F00080B513460A460221C0F894120021C0E986
:10520000063300F01FFA002080BD000080B50421A5
:10521000C0F8941200210022002300F013FA0020AD
:1052200080BD000080B5A0B303786BB1431E4FF082
:10523000000C00BF93F802E00CF1010CBEF1000F6E
:1052400003F10103F6D101E04FF0000C5FFA8CFC92
:10525000022303EB4C03138003220B704A7090F877
:1052600000E0BEF1000F08BF80BD013802234FF0FF
:10527000000C00BFDAB201F802E042F0010201F8CE
:1052800002C090F802E00233BEF1000F00F101000D
:10529000F0D180BD002804BF032070470023C0F870
:1052A000B832C0F8C0320029C0F8CC3218BFC0F8FC
:1052B000B412012180F89C12027000F0ADB8000019
:1052C00080B5D0F8C402FDF7E7FA002080BD0000E9
:1052D00080B5D0F8C402FDF7B7FA002080BD000009
:1052E000B0B5044671B194F89C02032849D1D4F8B2
:1052F000B8024269002A44D020469047002808BFDF
:105300000020B0BDD4F89402022833D1D4E90710AC
:1053100081420DD90B1A204611461A46E361FFF768
:1053200039FF204600210022002300F0DBF821E0B5
:105330000FD1A16981420CD3D4F89802814208D2DE
:105340002046002100220025FFF724FFC4F89852D0
:10535000E7E794F89C02032805D1D4F8B802C168A5
:1053600009B1204688472046802100F051F92046A7
:10537000FFF732FF94F8A002012804BF002084F850
:10538000A0020020B0BD000010B5044669B194F839
:105390009C0203281CD1D4F8B8028269C2B120460D
:1053A0009047002808BF002010BDD4F894020328BD
:1053B0000ED1D4E9570398420CD9C01AC4F85C0145
:1053C000984238BF0346204611461A46FFF7DAFED8
:1053D000002010BD94F89C02032805D1D4F8B8022F
:1053E000016909B1204688472046FFF70FFF0020DA
:1053F00010BD00000020704780B5012180F89C128C
:10540000D0F8B81211B14A6801799047002080BDE8
:10541000D0F8C402FDF774BA10B540F61C04C2F20D
:1054200000044FF0A0410422C4E90012002102222E
:10543000C4F80404C0F8C4422046C4E9062121622D
:10544000C4E90321C4E90B11FDF728FE20468021A1
:10545000FDF78EF9204600214022FDF78DF9204608
:1054600001218022FDF788F9002010BD4AB2D0F852
:10547000C40201F07F01C1EBC10100EB810000F526
:10548000FF71002A48BF00F13E0108787047000014
:1054900080B5D0F8B82242B190F89C32032B02D1EB
:1054A000126A02B19047002080BD032080BD000039
:1054B00080B5D0F8B82242B190F89C32032B02D1CB
:1054C000526A02B19047002080BD032080BD0000D9
:1054D00080B59446D0F8C4021A466346FDF71AFA1E
:1054E000002080BD80B5D0F8C402FDF747FA002047
:1054F00080BD0000F0B581B004460120002184F891
:105500009C02C4F89412D4F8B8026160C4F8A412E2
:10551000E8B1D4F8BC1221B1426812B12046002192
:105520009047204600210022402300254026FFF717
:10553000CFFF01272046802100224023A4F8647178
:10554000C4F86061FFF7C4FFA784266200E003256A
:10555000284601B0F0BD000090F89C12042904BF59
:1055600090F89D1280F89C120020704780B5D0F80A
:10557000B81241B190F89C22032A02D1C96901B145
:105580008847002080BD032080BD00000246002027
:105590001174704780B540F61402C2F20002012374
:1055A0001370D0F8C402FDF7B9FE002080BD0000E2
:1055B000B0B500F2AA250446284600F04BF80120B9
:1055C000C4F8940294F8AA02B4F8B02200F01F01C3
:1055D0000229C4F8982208D001290CD089B92046A4
:1055E0002946BDE8B04000F061B820462946BDE834
:1055F000B04000F057BA20462946BDE8B04000F060
:10560000F1BA00F080012046BDE8B040AFF3008061
:1056100080B5D0F8C402FDF7DBF9002080BD0000A2
:1056200080B5D0F8C402FDF795FE002080BD0000D3
:10563000014690F89C02042281F89D02002081F826
:105640009C22704780B5D0F8C402FDF7FBF900201A
:1056500080BD00000A7802704A7842704A88428011
:105660008A888280C988C1807047000010B582B0E6
:1056700004460020ADF8060059B1CA6AC4F8B81251
:1056800022B10DF106009047C4F8CC02002002B010
:1056900010BD032002B010BDD0F8B822002A04BF0C
:1056A0000320704712681047FFF7BABF70B582B089
:1056B0000D460978044611F060010CD0402901D054
:1056C00020292BD1D4F8B80229468268204602B09E
:1056D000BDE870401047687809283BD8DFE800F043
:1056E000052A3A443A50683A809194F89C0201386D
:1056F000022800F2A380E888022840F0DA80D4F87B
:10570000A4020322002808BF0122214641F80C2FE1
:1057100020460222FFF76CFD002508E0204680218C
:10572000FFF776FF204600210025FFF771FF28468E
:1057300002B070BD94F89C020138022800F2888003
:10574000688800250128F2D12046C4F8A452FFF74A
:105750005DFDECE720468021FFF75AFF204600213F
:105760000025FFF755FFE2E76888012840F07A80BE
:105770000120C4F8A4022046FFF748FD0025D6E723
:10578000A888002850D1E88800284DD168887F2853
:105790004AD894F89C12032940F0208120468021A9
:1057A000FFF736FF204600210025FFF731FFBEE757
:1057B00068884FF0FF3101EB102100220629ADF877
:1057C000062000F24081DFE811F007008700940016
:1057D0003E013E01A100AC00D4F8B40202682BE106
:1057E000E888012840D194F89C02411E02296AD21F
:1057F0000025214641F8085F20460122FFF7F8FC0A
:1058000095E7688840F27C65C2F2000510F0FE0F53
:10581000287033D020468021FFF7FAFE2046002171
:10582000FFF7F6FE032582E720468021FFF7F0FE12
:10583000204600210025FFF7EBFE78E72046802177
:10584000FFF7E6FE204600210025FFF7E1FE6EE7A8
:1058500020468021FFF7DCFE204600210025FFF7CF
:10586000D7FE64E7002562E720468021FFF7D0FEDF
:10587000204600210025FFF7CBFE58E794F89C2234
:10588000C1B2032A5CD0022A63D1002900F07980DA
:1058900020466160FFF700FF0546002800F0B18058
:1058A00020468021FFF7B4FE20460021FFF7B0FE1E
:1058B0003DE720468021FFF7ABFE20460021002572
:1058C000FFF7A6FE33E7032851D1211D2046012210
:1058D000FFF78EFC00252AE7217CD4F8B8020029C6
:1058E0000CBF816AC16A0DF1060088470646022096
:1058F00023E0C0B2052800F2A680DFE800F00389AB
:105900008D919599D4F8B402426894E0207C0028E7
:1059100040F09980D4F8B802416B0DF10600884739
:105920008EE0207C002840F08E80D4F8B802016B15
:105930000DF10600884706460720707001208CE0B4
:1059400021B3606888422DD12046FFF75FFC002517
:10595000EDE620468021FFF75BFE20460021FFF7A1
:1059600057FE29782046FFF705FC0325DFE6204691
:105970008021FFF74DFE204600210025FFF748FE5D
:10598000D5E62046FFF742FC0025D0E6022084F849
:105990009C0220466160FFF7EDFB2046FFF736FCD6
:1059A0000025C4E6C1B22046FFF7E4FB2978204673
:1059B0006160FFF771FE054600286ED02046802109
:1059C000FFF726FE20460021FFF722FE2179204620
:1059D000FFF7D0FB022084F89C02A8E600F07F05C8
:1059E0002046294684F89E52FFF7D4FD2046FFF753
:1059F0000DFC002D0CBF0120022084F89C02002524
:105A000095E62046FFF702FC032084F89C028EE610
:105A1000D4F8B40282680EE0D4F8B402C2680AE096
:105A2000D4F8B402026906E0D4F8B402426902E094
:105A3000D4F8B402826932B1207C0DF1060190479E
:105A40000646012009E020468021FFF7E1FD2046BF
:105A500000210026FFF7DCFD002090B1EA886AB142
:105A6000BDF8060078B1904238BF02462046314664
:105A7000ADF80620FFF7BCFB002558E62046FFF7EF
:105A8000C5FB002553E620468021FFF7C1FD2046D7
:105A90000021FFF7BDFD002549E62046FFF7B6FBD4
:105AA00045E60000B0B50D460978044611F06001E6
:105AB0000BD0402901D0202921D1D4F8B8022946A1
:105AC00082682046BDE8B04010476878297900B365
:105AD000012838D0032865D194F89C02032836D1D8
